:100000000C942A000C943F000C943F000C943F0089
:100010000C943F000C943F000C943F000C943F0064
:100020000C943F000C943F000C943F000C943F0054
:100030000C943F000C943F000C943F000C943F0044
:100040000C943F000C943F000C943F000C943F0034
:100050000C943F0011241FBECFE5D8E0DEBFCDBF1A
:1000600010E0A0E6B0E0E2E7F4E002C005900D92F7
:10007000AC3CB107D9F70E94BE000C9437020C9437
:100080000000E3EFF1E03197F1F700C00000A89A1B
:1000900082BBA99AA9980895E3EFF1E03197F1F7AF
:1000A00000C00000A89882BBA99AA9980895EF9271
:1000B000FF920F931F93CF93DF93182FE82FF92F01
:1000C000DF010D900020E9F711970A2F081BE12EA0
:1000D000E7017E01F92EE70103C089910E944100EA
:1000E000AE01411B4017C8F3DF91CF911F910F91D3
:1000F000FF90EF9008958FEF81BB83E084BB15BA2A
:1001000012BA8EE30E944C008EE00E944C0086E002
:100110000E944C0081E00E944C0080E690E00E942A
:10012000570083EC0E944C0080E790E00E9457004B
:100130008FE79AE1A6E081509040A040E1F700C02F
:100140000000089580E487B983E086B9089544B13A
:1001500084B182958F7090E025B130E02F703070BF
:10016000322F22274F70240F311D44E0880F991F32
:100170004A95E1F7280F391FC90108952F923F9240
:100180004F925F926F927F928F929F92AF92BF92A7
:10019000CF92DF92EF92FF920F931F93DF93CF9353
:1001A000CDB7DEB72C970FB6F894DEBF0FBECDBF2C
:1001B0008FEF87BB18BA0E947B000E94A20020E04C
:1001C00030E0CC24DD24AA24BB248824992466248E
:1001D0007724442455242224332418861F8200E0E7
:1001E00010E01E821D821C821B821A821982EE245C
:1001F000FF2460E070E007C001E010E004C021E0EF
:1002000030E000E010E06F5F7F4F6130710519F45E
:1002100040E447B911C06230710519F481E487B92F
:100220000BC06330710519F492E497B905C06430CE
:10023000710511F4E3E4E7B9F0ECF6B9349BFECFB5
:1002400040E146B929873A876B877C870E94A700DF
:100250006B857C8529853A856130710559F4E3E029
:1002600085339E0708F453C0F5E1F8BB91E0E92E11
:10027000F12C6AC06230710571F443E08533940754
:1002800060F181E288BB81E0282E312CE1E0F0E0D2
:10029000FE83ED8338C06330710571F4F3E085337C
:1002A0009F0710F144E448BBB1E06B2E712C81E054
:1002B00090E09C838B8327C06430710521F5E3E0D7
:1002C00085339E07C0F0FAE8F8BBA1E0AA2EB12C56
:1002D00081E090E09A83898314C044245524222429
:1002E00033241E821D820FC088249924662477241B
:1002F0001C821B8208C0CC24DD24AA24BB241A82C1
:10030000198260E070E0E114F104A9F404C01886D9
:100310001F8200E010E0E981FA81309781F48D813D
:100320009E81009761F4EB81FC81309741F418BA0B
:10033000EE24FF2427C0F1E0EF2EF12C02C0EE24C2
:10034000FF2401301105F1F48F819885009709F0A1
:1003500053CF81E06B877C870E944C008CE790E054
:100360000E94570080EC0E944C008BE890E00E94B5
:10037000570020E030E0E1E0F0E0F887EF8301E0B3
:1003800010E072C0F1E02F163104D1F44114510491
:1003900009F037CF81E06B877C870E944C008CE7A7
:1003A00090E00E94570080EC0E944C008AE990E0A7
:1003B0000E94570020E030E0E1E04E2E512C52C068
:1003C00041E064167104D1F48114910409F019CF4D
:1003D00081E06B877C870E944C008CE790E00E9454
:1003E000570080EC0E944C0087EA90E00E94570082
:1003F00020E030E071E0872E912C34C081E0A81617
:10040000B104D1F4C114D10409F0FBCE81E06B87B3
:100410007C870E944C008CE790E00E94570080ECA3
:100420000E944C0085EB90E00E94570020E030E0F5
:1004300061E0C62ED12C16C02115310509F0DFCEA2
:1004400081E06B877C870E944C0080E790E00E94EF
:10045000570080EC0E944C0084EC90E00E94570012
:1004600021E030E000E010E06B857C85CCCEF89494
:02047000FFCFBC
:100472004765737475726520436F6E74726F6C009A
:10048200576865656C2043686169720057686565E5
:100492006C204368616972206973006D6F76696EC2
:1004A2006720666F7277617264007475726E696E2E
:1004B20067206C656674007475726E696E6720726F
:1004C20069676874006D6F76696E6720726576651C
:0C04D2007273650069732073746F700012
:00000001FF
