:100000000C942A000C943F000C943F000C943F0089
:100010000C943F000C943F000C943F000C943F0064
:100020000C943F000C943F000C943F000C943F0054
:100030000C943F000C943F000C943F000C943F0044
:100040000C943F000C943F000C943F000C943F0034
:100050000C943F0011241FBECFE5D8E0DEBFCDBF1A
:1000600010E0A0E6B0E0EEE4F4E002C005900D92EE
:10007000AA3BB107D9F70E94C5000C9425020C9445
:100080000000EFE3FFE13197F1F700C0000095B306
:10009000916095BB82BB85B3826085BB85B38D7F44
:1000A00085BB0895EFE3FFE13197F1F700C0000051
:1000B00095B39E7F95BB82BB85B3826085BB85B3BC
:1000C0008D7F85BB08950F931F93CF93DF938C0192
:1000D000FC0101900020E9F73197DE2FD81BC0E02A
:1000E00006C0F80181918F010E944100CF5FCD17BA
:1000F000C0F3DF91CF911F910F9108958FEF81BBD6
:1001000083E084BB15BA12BA8EE30E9452008EE0DF
:100110000E94520086E00E94520081E00E9452003C
:1001200080E690E00E94630083EC0E9452008EE61D
:1001300090E00E9463002FEF87EA91E62150804013
:100140009040E1F700C0000008951ABA86B18068B7
:1001500086B980E487B917B886B1836086B90895F7
:1001600084B18F7024B122952F7045B14F7050E04B
:1001700060E1269F90011124542F4427B901680F94
:10018000711DCB01840F951F0895CF93DF93CDB7D9
:10019000DEB72C970FB6F894DEBF0FBECDBF1ABAEC
:1001A0008FEF8BBB87BB18BA8BE683BF0E947E00A4
:1001B0000E94A500812C912C1A861986412C512C65
:1001C00018861F82C12CD12C1C821B82E12CF12CA1
:1001D000612C712C1C861B861A8219821E821D823C
:1001E000A12CB12C00E010E0212C312C2FEF221A91
:1001F000320A81E02816310419F480E487B914C06A
:1002000092E02916310419F481E487B90DC023E086
:100210002216310419F482E487B906C084E0281656
:10022000310411F483E487B986B1806C86B9349BBC
:10023000FECF86B1806186B90E94B00021E022160F
:10024000310461F485339340E8F185E188BB81E0B6
:1002500090E09C878B8701E010E051C022E02216DD
:10026000310469F485339340A0F181E288BBEE2428
:10027000E394F12C81E090E09A83898340C023E0ED
:100280002216310469F48533934050F184E488BB2D
:10029000CC24C394D12C81E090E09E838D832FC029
:1002A00024E02216310459F58533934000F18AE8A1
:1002B00088BB44244394512CAA24A394B12C212C10
:1002C000312C1DC0612C712C1C861B8600E010E0B7
:1002D00016C01C821B82E12CF12C1A8219820FC0DD
:1002E00018861F82C12CD12C1E821D8208C01A863E
:1002F0001986412C512CA12CB12C212C312C01150B
:100300001105A1F4A114B10489F489819A81892B82
:1003100069F48D819E81892B49F418BA412C512CA6
:10032000C12CD12CE12CF12C1C861B868B859C8545
:100330000197C1F46114710409F058CF81E00E9463
:1003400052008EE690E00E94630080EC0E94520012
:1003500082E790E00E9463009FEF691A790A812C7E
:10036000912C44CF21E0E216F104D9F48B819C81D9
:10037000892B09F03BCF81E00E9452008EE690E08D
:100380000E94630080EC0E94520081E890E00E948D
:1003900063008B819C8101969C838B83812C912CA3
:1003A00025CF91E0C916D104D9F48F819885892B86
:1003B00009F01CCF81E00E9452008EE690E00E947E
:1003C000630080EC0E9452008EE890E00E9463007F
:1003D0008F819885019698878F83812C912C06CFE9
:1003E00091E049165104D9F489859A85892B09F041
:1003F000FDCE81E00E9452008EE690E00E946300F4
:1004000080EC0E9452008CE990E00E946300898594
:100410009A8501969A878987812C912CE7CE811441
:10042000910409F0E3CE81E00E9452008EE690E054
:100430000E94630080EC0E9452008CEA90E00E94CF
:0E04400063009FEF891A990AD1CEF894FFCF7E
:10044E00476C6F766520436F6E74726F6C004361FC
:10045E0072006D6F76696E6720666F727761726477
:10046E00007475726E696E67206C656674007475C3
:10047E00726E696E67207269676874006D6F766957
:10048E006E67206261636B77617264006973206EC0
:0A049E006F74206D6F76696E6700C1
:00000001FF
